{
    "_format": "hh-sol-artifact-1",
    "contractName": "PokemonNFT",
    "sourceName": "contracts/PokemonNFT.sol",
    "abi": [
        {
            "inputs": [],
            "stateMutability": "nonpayable",
            "type": "constructor"
        },
        {
            "inputs": [
                {
                    "internalType": "address",
                    "name": "sender",
                    "type": "address"
                },
                {
                    "internalType": "uint256",
                    "name": "tokenId",
                    "type": "uint256"
                },
                {
                    "internalType": "address",
                    "name": "owner",
                    "type": "address"
                }
            ],
            "name": "ERC721IncorrectOwner",
            "type": "error"
        },
        {
            "inputs": [
                {
                    "internalType": "address",
                    "name": "operator",
                    "type": "address"
                },
                {
                    "internalType": "uint256",
                    "name": "tokenId",
                    "type": "uint256"
                }
            ],
            "name": "ERC721InsufficientApproval",
            "type": "error"
        },
        {
            "inputs": [
                {
                    "internalType": "address",
                    "name": "approver",
                    "type": "address"
                }
            ],
            "name": "ERC721InvalidApprover",
            "type": "error"
        },
        {
            "inputs": [
                {
                    "internalType": "address",
                    "name": "operator",
                    "type": "address"
                }
            ],
            "name": "ERC721InvalidOperator",
            "type": "error"
        },
        {
            "inputs": [
                {
                    "internalType": "address",
                    "name": "owner",
                    "type": "address"
                }
            ],
            "name": "ERC721InvalidOwner",
            "type": "error"
        },
        {
            "inputs": [
                {
                    "internalType": "address",
                    "name": "receiver",
                    "type": "address"
                }
            ],
            "name": "ERC721InvalidReceiver",
            "type": "error"
        },
        {
            "inputs": [
                {
                    "internalType": "address",
                    "name": "sender",
                    "type": "address"
                }
            ],
            "name": "ERC721InvalidSender",
            "type": "error"
        },
        {
            "inputs": [
                {
                    "internalType": "uint256",
                    "name": "tokenId",
                    "type": "uint256"
                }
            ],
            "name": "ERC721NonexistentToken",
            "type": "error"
        },
        {
            "inputs": [
                {
                    "internalType": "address",
                    "name": "owner",
                    "type": "address"
                }
            ],
            "name": "OwnableInvalidOwner",
            "type": "error"
        },
        {
            "inputs": [
                {
                    "internalType": "address",
                    "name": "account",
                    "type": "address"
                }
            ],
            "name": "OwnableUnauthorizedAccount",
            "type": "error"
        },
        {
            "anonymous": false,
            "inputs": [
                {
                    "indexed": true,
                    "internalType": "address",
                    "name": "owner",
                    "type": "address"
                },
                {
                    "indexed": true,
                    "internalType": "address",
                    "name": "approved",
                    "type": "address"
                },
                {
                    "indexed": true,
                    "internalType": "uint256",
                    "name": "tokenId",
                    "type": "uint256"
                }
            ],
            "name": "Approval",
            "type": "event"
        },
        {
            "anonymous": false,
            "inputs": [
                {
                    "indexed": true,
                    "internalType": "address",
                    "name": "owner",
                    "type": "address"
                },
                {
                    "indexed": true,
                    "internalType": "address",
                    "name": "operator",
                    "type": "address"
                },
                {
                    "indexed": false,
                    "internalType": "bool",
                    "name": "approved",
                    "type": "bool"
                }
            ],
            "name": "ApprovalForAll",
            "type": "event"
        },
        {
            "anonymous": false,
            "inputs": [
                {
                    "indexed": false,
                    "internalType": "uint256",
                    "name": "_fromTokenId",
                    "type": "uint256"
                },
                {
                    "indexed": false,
                    "internalType": "uint256",
                    "name": "_toTokenId",
                    "type": "uint256"
                }
            ],
            "name": "BatchMetadataUpdate",
            "type": "event"
        },
        {
            "anonymous": false,
            "inputs": [
                {
                    "indexed": false,
                    "internalType": "uint256",
                    "name": "_tokenId",
                    "type": "uint256"
                }
            ],
            "name": "MetadataUpdate",
            "type": "event"
        },
        {
            "anonymous": false,
            "inputs": [
                {
                    "indexed": true,
                    "internalType": "address",
                    "name": "previousOwner",
                    "type": "address"
                },
                {
                    "indexed": true,
                    "internalType": "address",
                    "name": "newOwner",
                    "type": "address"
                }
            ],
            "name": "OwnershipTransferred",
            "type": "event"
        },
        {
            "anonymous": false,
            "inputs": [
                {
                    "indexed": true,
                    "internalType": "uint256",
                    "name": "tokenId",
                    "type": "uint256"
                },
                {
                    "indexed": true,
                    "internalType": "address",
                    "name": "claimer",
                    "type": "address"
                }
            ],
            "name": "PokemonClaimed",
            "type": "event"
        },
        {
            "anonymous": false,
            "inputs": [
                {
                    "indexed": true,
                    "internalType": "uint256",
                    "name": "tokenId",
                    "type": "uint256"
                },
                {
                    "indexed": false,
                    "internalType": "bytes32",
                    "name": "claimHash",
                    "type": "bytes32"
                }
            ],
            "name": "PokemonCreated",
            "type": "event"
        },
        {
            "anonymous": false,
            "inputs": [
                {
                    "indexed": true,
                    "internalType": "address",
                    "name": "from",
                    "type": "address"
                },
                {
                    "indexed": true,
                    "internalType": "address",
                    "name": "to",
                    "type": "address"
                },
                {
                    "indexed": true,
                    "internalType": "uint256",
                    "name": "tokenId",
                    "type": "uint256"
                }
            ],
            "name": "Transfer",
            "type": "event"
        },
        {
            "inputs": [
                {
                    "internalType": "address",
                    "name": "to",
                    "type": "address"
                },
                {
                    "internalType": "uint256",
                    "name": "tokenId",
                    "type": "uint256"
                }
            ],
            "name": "approve",
            "outputs": [],
            "stateMutability": "nonpayable",
            "type": "function"
        },
        {
            "inputs": [
                {
                    "internalType": "address",
                    "name": "owner",
                    "type": "address"
                }
            ],
            "name": "balanceOf",
            "outputs": [
                {
                    "internalType": "uint256",
                    "name": "",
                    "type": "uint256"
                }
            ],
            "stateMutability": "view",
            "type": "function"
        },
        {
            "inputs": [
                {
                    "internalType": "bytes32",
                    "name": "hash",
                    "type": "bytes32"
                }
            ],
            "name": "claimPokemon",
            "outputs": [],
            "stateMutability": "nonpayable",
            "type": "function"
        },
        {
            "inputs": [
                {
                    "internalType": "string",
                    "name": "name",
                    "type": "string"
                },
                {
                    "internalType": "enum PokemonNFT.Rarity",
                    "name": "rarity",
                    "type": "uint8"
                },
                {
                    "internalType": "string",
                    "name": "behavior",
                    "type": "string"
                },
                {
                    "internalType": "enum PokemonNFT.PokemonType",
                    "name": "pokemonType",
                    "type": "uint8"
                },
                {
                    "internalType": "string",
                    "name": "uri",
                    "type": "string"
                }
            ],
            "name": "createPokemon",
            "outputs": [
                {
                    "internalType": "uint256",
                    "name": "",
                    "type": "uint256"
                },
                {
                    "internalType": "bytes32",
                    "name": "",
                    "type": "bytes32"
                }
            ],
            "stateMutability": "nonpayable",
            "type": "function"
        },
        {
            "inputs": [
                {
                    "internalType": "uint256",
                    "name": "tokenId",
                    "type": "uint256"
                }
            ],
            "name": "getApproved",
            "outputs": [
                {
                    "internalType": "address",
                    "name": "",
                    "type": "address"
                }
            ],
            "stateMutability": "view",
            "type": "function"
        },
        {
            "inputs": [
                {
                    "internalType": "uint256",
                    "name": "tokenId",
                    "type": "uint256"
                }
            ],
            "name": "getPokemon",
            "outputs": [
                {
                    "components": [
                        {
                            "internalType": "string",
                            "name": "name",
                            "type": "string"
                        },
                        {
                            "internalType": "enum PokemonNFT.Rarity",
                            "name": "rarity",
                            "type": "uint8"
                        },
                        {
                            "internalType": "string",
                            "name": "behavior",
                            "type": "string"
                        },
                        {
                            "internalType": "enum PokemonNFT.PokemonType",
                            "name": "pokemonType",
                            "type": "uint8"
                        },
                        {
                            "internalType": "bool",
                            "name": "claimed",
                            "type": "bool"
                        },
                        {
                            "internalType": "address",
                            "name": "owner",
                            "type": "address"
                        },
                        {
                            "internalType": "string",
                            "name": "tokenURI",
                            "type": "string"
                        }
                    ],
                    "internalType": "struct PokemonNFT.PokemonData",
                    "name": "",
                    "type": "tuple"
                }
            ],
            "stateMutability": "view",
            "type": "function"
        },
        {
            "inputs": [
                {
                    "internalType": "address",
                    "name": "owner",
                    "type": "address"
                },
                {
                    "internalType": "address",
                    "name": "operator",
                    "type": "address"
                }
            ],
            "name": "isApprovedForAll",
            "outputs": [
                {
                    "internalType": "bool",
                    "name": "",
                    "type": "bool"
                }
            ],
            "stateMutability": "view",
            "type": "function"
        },
        {
            "inputs": [
                {
                    "internalType": "uint256",
                    "name": "tokenId",
                    "type": "uint256"
                }
            ],
            "name": "isPokemonClaimed",
            "outputs": [
                {
                    "internalType": "bool",
                    "name": "",
                    "type": "bool"
                }
            ],
            "stateMutability": "view",
            "type": "function"
        },
        {
            "inputs": [],
            "name": "name",
            "outputs": [
                {
                    "internalType": "string",
                    "name": "",
                    "type": "string"
                }
            ],
            "stateMutability": "view",
            "type": "function"
        },
        {
            "inputs": [],
            "name": "owner",
            "outputs": [
                {
                    "internalType": "address",
                    "name": "",
                    "type": "address"
                }
            ],
            "stateMutability": "view",
            "type": "function"
        },
        {
            "inputs": [
                {
                    "internalType": "uint256",
                    "name": "tokenId",
                    "type": "uint256"
                }
            ],
            "name": "ownerOf",
            "outputs": [
                {
                    "internalType": "address",
                    "name": "",
                    "type": "address"
                }
            ],
            "stateMutability": "view",
            "type": "function"
        },
        {
            "inputs": [
                {
                    "internalType": "uint256",
                    "name": "",
                    "type": "uint256"
                }
            ],
            "name": "pokemons",
            "outputs": [
                {
                    "internalType": "string",
                    "name": "name",
                    "type": "string"
                },
                {
                    "internalType": "enum PokemonNFT.Rarity",
                    "name": "rarity",
                    "type": "uint8"
                },
                {
                    "internalType": "string",
                    "name": "behavior",
                    "type": "string"
                },
                {
                    "internalType": "enum PokemonNFT.PokemonType",
                    "name": "pokemonType",
                    "type": "uint8"
                },
                {
                    "internalType": "bool",
                    "name": "claimed",
                    "type": "bool"
                }
            ],
            "stateMutability": "view",
            "type": "function"
        },
        {
            "inputs": [],
            "name": "renounceOwnership",
            "outputs": [],
            "stateMutability": "nonpayable",
            "type": "function"
        },
        {
            "inputs": [
                {
                    "internalType": "address",
                    "name": "from",
                    "type": "address"
                },
                {
                    "internalType": "address",
                    "name": "to",
                    "type": "address"
                },
                {
                    "internalType": "uint256",
                    "name": "tokenId",
                    "type": "uint256"
                }
            ],
            "name": "safeTransferFrom",
            "outputs": [],
            "stateMutability": "nonpayable",
            "type": "function"
        },
        {
            "inputs": [
                {
                    "internalType": "address",
                    "name": "from",
                    "type": "address"
                },
                {
                    "internalType": "address",
                    "name": "to",
                    "type": "address"
                },
                {
                    "internalType": "uint256",
                    "name": "tokenId",
                    "type": "uint256"
                },
                {
                    "internalType": "bytes",
                    "name": "data",
                    "type": "bytes"
                }
            ],
            "name": "safeTransferFrom",
            "outputs": [],
            "stateMutability": "nonpayable",
            "type": "function"
        },
        {
            "inputs": [
                {
                    "internalType": "address",
                    "name": "operator",
                    "type": "address"
                },
                {
                    "internalType": "bool",
                    "name": "approved",
                    "type": "bool"
                }
            ],
            "name": "setApprovalForAll",
            "outputs": [],
            "stateMutability": "nonpayable",
            "type": "function"
        },
        {
            "inputs": [
                {
                    "internalType": "bytes4",
                    "name": "interfaceId",
                    "type": "bytes4"
                }
            ],
            "name": "supportsInterface",
            "outputs": [
                {
                    "internalType": "bool",
                    "name": "",
                    "type": "bool"
                }
            ],
            "stateMutability": "view",
            "type": "function"
        },
        {
            "inputs": [],
            "name": "symbol",
            "outputs": [
                {
                    "internalType": "string",
                    "name": "",
                    "type": "string"
                }
            ],
            "stateMutability": "view",
            "type": "function"
        },
        {
            "inputs": [
                {
                    "internalType": "uint256",
                    "name": "tokenId",
                    "type": "uint256"
                }
            ],
            "name": "tokenURI",
            "outputs": [
                {
                    "internalType": "string",
                    "name": "",
                    "type": "string"
                }
            ],
            "stateMutability": "view",
            "type": "function"
        },
        {
            "inputs": [
                {
                    "internalType": "address",
                    "name": "from",
                    "type": "address"
                },
                {
                    "internalType": "address",
                    "name": "to",
                    "type": "address"
                },
                {
                    "internalType": "uint256",
                    "name": "tokenId",
                    "type": "uint256"
                }
            ],
            "name": "transferFrom",
            "outputs": [],
            "stateMutability": "nonpayable",
            "type": "function"
        },
        {
            "inputs": [
                {
                    "internalType": "address",
                    "name": "newOwner",
                    "type": "address"
                }
            ],
            "name": "transferOwnership",
            "outputs": [],
            "stateMutability": "nonpayable",
            "type": "function"
        },
        {
            "inputs": [
                {
                    "internalType": "bytes32",
                    "name": "",
                    "type": "bytes32"
                }
            ],
            "name": "usedHashes",
            "outputs": [
                {
                    "internalType": "bool",
                    "name": "",
                    "type": "bool"
                }
            ],
            "stateMutability": "view",
            "type": "function"
        }
    ],
    "bytecode": "0x608060405234801561001057600080fd5b50336040518060400160405280600a81526020017f506f6b656d6f6e4e4654000000000000000000000000000000000000000000008152506040518060400160405280600481526020017f504b4d4e00000000000000000000000000000000000000000000000000000000815250816000908161008d919061043d565b50806001908161009d919061043d565b505050600073ffffffffffffffffffffffffffffffffffffffff168173ffffffffffffffffffffffffffffffffffffffff16036101125760006040517f1e4fbdf70000000000000000000000000000000000000000000000000000000081526004016101099190610550565b60405180910390fd5b6101218161012760201b60201c565b5061056b565b6000600760009054906101000a900473ffffffffffffffffffffffffffffffffffffffff16905081600760006101000a81548173ffffffffffffffffffffffffffffffffffffffff021916908373ffffffffffffffffffffffffffffffffffffffff1602179055508173ffffffffffffffffffffffffffffffffffffffff168173ffffffffffffffffffffffffffffffffffffffff167f8be0079c531659141344cd1fd0a4f28419497f9722a3daafe3b4186f6b6457e060405160405180910390a35050565b600081519050919050565b7f4e487b7100000000000000000000000000000000000000000000000000000000600052604160045260246000fd5b7f4e487b7100000000000000000000000000000000000000000000000000000000600052602260045260246000fd5b6000600282049050600182168061026e57607f821691505b60208210810361028157610280610227565b5b50919050565b60008190508160005260206000209050919050565b60006020601f8301049050919050565b600082821b905092915050565b6000600883026102e97fffffffffffffffffffffffffffffffffffffffffffffffffffffffffffffffff826102ac565b6102f386836102ac565b95508019841693508086168417925050509392505050565b6000819050919050565b6000819050919050565b600061033a6103356103308461030b565b610315565b61030b565b9050919050565b6000819050919050565b6103548361031f565b61036861036082610341565b8484546102b9565b825550505050565b600090565b61037d610370565b61038881848461034b565b505050565b5b818110156103ac576103a1600082610375565b60018101905061038e565b5050565b601f8211156103f1576103c281610287565b6103cb8461029c565b810160208510156103da578190505b6103ee6103e68561029c565b83018261038d565b50505b505050565b600082821c905092915050565b6000610414600019846008026103f6565b1980831691505092915050565b600061042d8383610403565b9150826002028217905092915050565b610446826101ed565b67ffffffffffffffff81111561045f5761045e6101f8565b5b6104698254610256565b6104748282856103b0565b600060209050601f8311600181146104a75760008415610495578287015190505b61049f8582610421565b865550610507565b601f1984166104b586610287565b60005b828110156104dd578489015182556001820191506020850194506020810190506104b8565b868310156104fa57848901516104f6601f891682610403565b8355505b6001600288020188555050505b505050505050565b600073ffffffffffffffffffffffffffffffffffffffff82169050919050565b600061053a8261050f565b9050919050565b61054a8161052f565b82525050565b60006020820190506105656000830184610541565b92915050565b6137de8061057a6000396000f3fe608060405234801561001057600080fd5b50600436106101425760003560e01c80638da5cb5b116100b8578063aef18bf71161007c578063aef18bf71461038c578063b88d4fde146103bc578063c87b56dd146103d8578063e985e9c514610408578063f0b305db14610438578063f2fde38b1461046857610142565b80638da5cb5b146102d357806395d89b41146102f15780639942c1211461030f578063a22cb46514610340578063aa5e89201461035c57610142565b806342842e0e1161010a57806342842e0e146101fd57806353142871146102195780636352211e1461023557806370a0823114610265578063715018a614610295578063858310791461029f57610142565b806301ffc9a71461014757806306fdde0314610177578063081812fc14610195578063095ea7b3146101c557806323b872dd146101e1575b600080fd5b610161600480360381019061015c919061257a565b610484565b60405161016e91906125c2565b60405180910390f35b61017f610496565b60405161018c919061266d565b60405180910390f35b6101af60048036038101906101aa91906126c5565b610528565b6040516101bc9190612733565b60405180910390f35b6101df60048036038101906101da919061277a565b610544565b005b6101fb60048036038101906101f691906127ba565b61055a565b005b610217600480360381019061021291906127ba565b61065c565b005b610233600480360381019061022e9190612843565b61067c565b005b61024f600480360381019061024a91906126c5565b61086a565b60405161025c9190612733565b60405180910390f35b61027f600480360381019061027a9190612870565b61087c565b60405161028c91906128ac565b60405180910390f35b61029d610936565b005b6102b960048036038101906102b491906126c5565b61094a565b6040516102ca959493929190612986565b60405180910390f35b6102db610ab7565b6040516102e89190612733565b60405180910390f35b6102f9610ae1565b604051610306919061266d565b60405180910390f35b61032960048036038101906103249190612b66565b610b73565b604051610337929190612c44565b60405180910390f35b61035a60048036038101906103559190612c99565b610d32565b005b610376600480360381019061037191906126c5565b610d48565b60405161038391906125c2565b60405180910390f35b6103a660048036038101906103a19190612843565b610dbd565b6040516103b391906125c2565b60405180910390f35b6103d660048036038101906103d19190612d7a565b610ddd565b005b6103f260048036038101906103ed91906126c5565b610dfa565b6040516103ff919061266d565b60405180910390f35b610422600480360381019061041d9190612dfd565b610e0c565b60405161042f91906125c2565b60405180910390f35b610452600480360381019061044d91906126c5565b610ea0565b60405161045f9190612f6d565b60405180910390f35b610482600480360381019061047d9190612870565b611173565b005b600061048f826111f9565b9050919050565b6060600080546104a590612fbe565b80601f01602080910402602001604051908101604052809291908181526020018280546104d190612fbe565b801561051e5780601f106104f35761010080835404028352916020019161051e565b820191906000526020600020905b81548152906001019060200180831161050157829003601f168201915b5050505050905090565b60006105338261125a565b5061053d826112e2565b9050919050565b610556828261055161131f565b611327565b5050565b600073ffffffffffffffffffffffffffffffffffffffff168273ffffffffffffffffffffffffffffffffffffffff16036105cc5760006040517f64a0ae920000000000000000000000000000000000000000000000000000000081526004016105c39190612733565b60405180910390fd5b60006105e083836105db61131f565b611339565b90508373ffffffffffffffffffffffffffffffffffffffff168173ffffffffffffffffffffffffffffffffffffffff1614610656578382826040517f64283d7b00000000000000000000000000000000000000000000000000000000815260040161064d93929190612fef565b60405180910390fd5b50505050565b61067783838360405180602001604052806000815250610ddd565b505050565b600a600082815260200190815260200160002060009054906101000a900460ff16156106dd576040517f08c379a00000000000000000000000000000000000000000000000000000000081526004016106d490613072565b60405180910390fd5b600080600090506000600190505b600854811161077b576009600082815260200190815260200160002060030160019054906101000a900460ff166107685760008142610728610ab7565b60405160200161073a939291906130fb565b60405160208183030381529060405280519060200120905084810361076657819350600192505061077b565b505b808061077390613167565b9150506106eb565b50806107bc576040517f08c379a00000000000000000000000000000000000000000000000000000000081526004016107b3906131fb565b60405180910390fd5b6001600a600085815260200190815260200160002060006101000a81548160ff02191690831515021790555060016009600084815260200190815260200160002060030160016101000a81548160ff0219169083151502179055506108213383611553565b3373ffffffffffffffffffffffffffffffffffffffff16827f5ee038156366d6269b1b1eb8ddbec4c85dce41342b525c6f65b6d03a577fa90960405160405180910390a3505050565b60006108758261125a565b9050919050565b60008073ffffffffffffffffffffffffffffffffffffffff168273ffffffffffffffffffffffffffffffffffffffff16036108ef5760006040517f89c62b640000000000000000000000000000000000000000000000000000000081526004016108e69190612733565b60405180910390fd5b600360008373ffffffffffffffffffffffffffffffffffffffff1673ffffffffffffffffffffffffffffffffffffffff168152602001908152602001600020549050919050565b61093e611571565b61094860006115f8565b565b600960205280600052604060002060009150905080600001805461096d90612fbe565b80601f016020809104026020016040519081016040528092919081815260200182805461099990612fbe565b80156109e65780601f106109bb576101008083540402835291602001916109e6565b820191906000526020600020905b8154815290600101906020018083116109c957829003601f168201915b5050505050908060010160009054906101000a900460ff1690806002018054610a0e90612fbe565b80601f0160208091040260200160405190810160405280929190818152602001828054610a3a90612fbe565b8015610a875780601f10610a5c57610100808354040283529160200191610a87565b820191906000526020600020905b815481529060010190602001808311610a6a57829003601f168201915b5050505050908060030160009054906101000a900460ff16908060030160019054906101000a900460ff16905085565b6000600760009054906101000a900473ffffffffffffffffffffffffffffffffffffffff16905090565b606060018054610af090612fbe565b80601f0160208091040260200160405190810160405280929190818152602001828054610b1c90612fbe565b8015610b695780601f10610b3e57610100808354040283529160200191610b69565b820191906000526020600020905b815481529060010190602001808311610b4c57829003601f168201915b5050505050905090565b600080610b7e611571565b600160086000828254610b91919061321b565b92505081905550600060085490506000814233604051602001610bb6939291906130fb565b6040516020818303038152906040528051906020012090506040518060a001604052808a8152602001896004811115610bf257610bf16128c7565b5b8152602001888152602001876005811115610c1057610c0f6128c7565b5b815260200160001515815250600960008481526020019081526020016000206000820151816000019081610c4491906133fb565b5060208201518160010160006101000a81548160ff02191690836004811115610c7057610c6f6128c7565b5b02179055506040820151816002019081610c8a91906133fb565b5060608201518160030160006101000a81548160ff02191690836005811115610cb657610cb56128c7565b5b021790555060808201518160030160016101000a81548160ff021916908315150217905550905050610ce882866116be565b817f6ff938f30cd4609e9a475ee7bb68e4a4359bda86905f1fd043d59c9a4054d38082604051610d1891906134cd565b60405180910390a281819350935050509550959350505050565b610d44610d3d61131f565b838361171a565b5050565b6000610d5382611889565b610d92576040517f08c379a0000000000000000000000000000000000000000000000000000000008152600401610d8990613534565b60405180910390fd5b6009600083815260200190815260200160002060030160019054906101000a900460ff169050919050565b600a6020528060005260406000206000915054906101000a900460ff1681565b610de884848461055a565b610df4848484846118a3565b50505050565b6060610e0582611a5a565b9050919050565b6000600560008473ffffffffffffffffffffffffffffffffffffffff1673ffffffffffffffffffffffffffffffffffffffff16815260200190815260200160002060008373ffffffffffffffffffffffffffffffffffffffff1673ffffffffffffffffffffffffffffffffffffffff16815260200190815260200160002060009054906101000a900460ff16905092915050565b610ea8612495565b610eb182611889565b610ef0576040517f08c379a0000000000000000000000000000000000000000000000000000000008152600401610ee790613534565b60405180910390fd5b6000600960008481526020019081526020016000206040518060a0016040529081600082018054610f2090612fbe565b80601f0160208091040260200160405190810160405280929190818152602001828054610f4c90612fbe565b8015610f995780601f10610f6e57610100808354040283529160200191610f99565b820191906000526020600020905b815481529060010190602001808311610f7c57829003601f168201915b505050505081526020016001820160009054906101000a900460ff166004811115610fc757610fc66128c7565b5b6004811115610fd957610fd86128c7565b5b8152602001600282018054610fed90612fbe565b80601f016020809104026020016040519081016040528092919081815260200182805461101990612fbe565b80156110665780601f1061103b57610100808354040283529160200191611066565b820191906000526020600020905b81548152906001019060200180831161104957829003601f168201915b505050505081526020016003820160009054906101000a900460ff166005811115611094576110936128c7565b5b60058111156110a6576110a56128c7565b5b81526020016003820160019054906101000a900460ff161515151581525050905060008160800151156110df576110dc8461086a565b90505b6040518060e00160405280836000015181526020018360200151600481111561110b5761110a6128c7565b5b81526020018360400151815260200183606001516005811115611131576111306128c7565b5b81526020018360800151151581526020018273ffffffffffffffffffffffffffffffffffffffff16815260200161116786611b6d565b81525092505050919050565b61117b611571565b600073ffffffffffffffffffffffffffffffffffffffff168173ffffffffffffffffffffffffffffffffffffffff16036111ed5760006040517f1e4fbdf70000000000000000000000000000000000000000000000000000000081526004016111e49190612733565b60405180910390fd5b6111f6816115f8565b50565b6000634906490660e01b7bffffffffffffffffffffffffffffffffffffffffffffffffffffffff1916827bffffffffffffffffffffffffffffffffffffffffffffffffffffffff19161480611253575061125282611c0c565b5b9050919050565b60008061126683611cee565b9050600073ffffffffffffffffffffffffffffffffffffffff168173ffffffffffffffffffffffffffffffffffffffff16036112d957826040517f7e2732890000000000000000000000000000000000000000000000000000000081526004016112d091906128ac565b60405180910390fd5b80915050919050565b60006004600083815260200190815260200160002060009054906101000a900473ffffffffffffffffffffffffffffffffffffffff169050919050565b600033905090565b6113348383836001611d2b565b505050565b60008061134584611cee565b9050600073ffffffffffffffffffffffffffffffffffffffff168373ffffffffffffffffffffffffffffffffffffffff161461138757611386818486611ef0565b5b600073ffffffffffffffffffffffffffffffffffffffff168173ffffffffffffffffffffffffffffffffffffffff1614611418576113c9600085600080611d2b565b6001600360008373ffffffffffffffffffffffffffffffffffffffff1673ffffffffffffffffffffffffffffffffffffffff168152602001908152602001600020600082825403925050819055505b600073ffffffffffffffffffffffffffffffffffffffff168573ffffffffffffffffffffffffffffffffffffffff161461149b576001600360008773ffffffffffffffffffffffffffffffffffffffff1673ffffffffffffffffffffffffffffffffffffffff168152602001908152602001600020600082825401925050819055505b846002600086815260200190815260200160002060006101000a81548173ffffffffffffffffffffffffffffffffffffffff021916908373ffffffffffffffffffffffffffffffffffffffff160217905550838573ffffffffffffffffffffffffffffffffffffffff168273ffffffffffffffffffffffffffffffffffffffff167fddf252ad1be2c89b69c2b068fc378daa952ba7f163c4a11628f55a4df523b3ef60405160405180910390a4809150509392505050565b61156d828260405180602001604052806000815250611fb4565b5050565b61157961131f565b73ffffffffffffffffffffffffffffffffffffffff16611597610ab7565b73ffffffffffffffffffffffffffffffffffffffff16146115f6576115ba61131f565b6040517f118cdaa70000000000000000000000000000000000000000000000000000000081526004016115ed9190612733565b60405180910390fd5b565b6000600760009054906101000a900473ffffffffffffffffffffffffffffffffffffffff16905081600760006101000a81548173ffffffffffffffffffffffffffffffffffffffff021916908373ffffffffffffffffffffffffffffffffffffffff1602179055508173ffffffffffffffffffffffffffffffffffffffff168173ffffffffffffffffffffffffffffffffffffffff167f8be0079c531659141344cd1fd0a4f28419497f9722a3daafe3b4186f6b6457e060405160405180910390a35050565b806006600084815260200190815260200160002090816116de91906133fb565b507ff8e1a15aba9398e019f0b49df1a4fde98ee17ae345cb5f6b5e2c27f5033e8ce78260405161170e91906128ac565b60405180910390a15050565b600073ffffffffffffffffffffffffffffffffffffffff168273ffffffffffffffffffffffffffffffffffffffff160361178b57816040517f5b08ba180000000000000000000000000000000000000000000000000000000081526004016117829190612733565b60405180910390fd5b80600560008573ffffffffffffffffffffffffffffffffffffffff1673ffffffffffffffffffffffffffffffffffffffff16815260200190815260200160002060008473ffffffffffffffffffffffffffffffffffffffff1673ffffffffffffffffffffffffffffffffffffffff16815260200190815260200160002060006101000a81548160ff0219169083151502179055508173ffffffffffffffffffffffffffffffffffffffff168373ffffffffffffffffffffffffffffffffffffffff167f17307eab39ab6107e8899845ad3d59bd9653f200f220920489ca2b5937696c318360405161187c91906125c2565b60405180910390a3505050565b6000808211801561189c57506008548211155b9050919050565b60008373ffffffffffffffffffffffffffffffffffffffff163b1115611a54578273ffffffffffffffffffffffffffffffffffffffff1663150b7a026118e761131f565b8685856040518563ffffffff1660e01b815260040161190994939291906135a9565b6020604051808303816000875af192505050801561194557506040513d601f19601f82011682018060405250810190611942919061360a565b60015b6119c9573d8060008114611975576040519150601f19603f3d011682016040523d82523d6000602084013e61197a565b606091505b5060008151036119c157836040517f64a0ae920000000000000000000000000000000000000000000000000000000081526004016119b89190612733565b60405180910390fd5b805181602001fd5b63150b7a0260e01b7bffffffffffffffffffffffffffffffffffffffffffffffffffffffff1916817bffffffffffffffffffffffffffffffffffffffffffffffffffffffff191614611a5257836040517f64a0ae92000000000000000000000000000000000000000000000000000000008152600401611a499190612733565b60405180910390fd5b505b50505050565b6060611a658261125a565b506000600660008481526020019081526020016000208054611a8690612fbe565b80601f0160208091040260200160405190810160405280929190818152602001828054611ab290612fbe565b8015611aff5780601f10611ad457610100808354040283529160200191611aff565b820191906000526020600020905b815481529060010190602001808311611ae257829003601f168201915b505050505090506000611b10611fd0565b90506000815103611b25578192505050611b68565b600082511115611b5a578082604051602001611b42929190613673565b60405160208183030381529060405292505050611b68565b611b6384611fe7565b925050505b919050565b60603073ffffffffffffffffffffffffffffffffffffffff1663c87b56dd836040518263ffffffff1660e01b8152600401611ba891906128ac565b600060405180830381865afa925050508015611be757506040513d6000823e3d601f19601f82011682018060405250810190611be49190613707565b60015b611c0257604051806020016040528060008152509050611c07565b809150505b919050565b60007f80ac58cd000000000000000000000000000000000000000000000000000000007bffffffffffffffffffffffffffffffffffffffffffffffffffffffff1916827bffffffffffffffffffffffffffffffffffffffffffffffffffffffff19161480611cd757507f5b5e139f000000000000000000000000000000000000000000000000000000007bffffffffffffffffffffffffffffffffffffffffffffffffffffffff1916827bffffffffffffffffffffffffffffffffffffffffffffffffffffffff1916145b80611ce75750611ce682612050565b5b9050919050565b60006002600083815260200190815260200160002060009054906101000a900473ffffffffffffffffffffffffffffffffffffffff169050919050565b8080611d645750600073ffffffffffffffffffffffffffffffffffffffff168273ffffffffffffffffffffffffffffffffffffffff1614155b15611e98576000611d748461125a565b9050600073ffffffffffffffffffffffffffffffffffffffff168373ffffffffffffffffffffffffffffffffffffffff1614158015611ddf57508273ffffffffffffffffffffffffffffffffffffffff168173ffffffffffffffffffffffffffffffffffffffff1614155b8015611df25750611df08184610e0c565b155b15611e3457826040517fa9fbf51f000000000000000000000000000000000000000000000000000000008152600401611e2b9190612733565b60405180910390fd5b8115611e9657838573ffffffffffffffffffffffffffffffffffffffff168273ffffffffffffffffffffffffffffffffffffffff167f8c5be1e5ebec7d5bd14f71427d1e84f3dd0314c0f7b2291e5b200ac8c7c3b92560405160405180910390a45b505b836004600085815260200190815260200160002060006101000a81548173ffffffffffffffffffffffffffffffffffffffff021916908373ffffffffffffffffffffffffffffffffffffffff16021790555050505050565b611efb8383836120ba565b611faf57600073ffffffffffffffffffffffffffffffffffffffff168373ffffffffffffffffffffffffffffffffffffffff1603611f7057806040517f7e273289000000000000000000000000000000000000000000000000000000008152600401611f6791906128ac565b60405180910390fd5b81816040517f177e802f000000000000000000000000000000000000000000000000000000008152600401611fa6929190613750565b60405180910390fd5b505050565b611fbe838361217b565b611fcb60008484846118a3565b505050565b606060405180602001604052806000815250905090565b6060611ff28261125a565b506000611ffd611fd0565b9050600081511161201d5760405180602001604052806000815250612048565b8061202784612274565b604051602001612038929190613673565b6040516020818303038152906040525b915050919050565b60007f01ffc9a7000000000000000000000000000000000000000000000000000000007bffffffffffffffffffffffffffffffffffffffffffffffffffffffff1916827bffffffffffffffffffffffffffffffffffffffffffffffffffffffff1916149050919050565b60008073ffffffffffffffffffffffffffffffffffffffff168373ffffffffffffffffffffffffffffffffffffffff161415801561217257508273ffffffffffffffffffffffffffffffffffffffff168473ffffffffffffffffffffffffffffffffffffffff16148061213357506121328484610e0c565b5b8061217157508273ffffffffffffffffffffffffffffffffffffffff16612159836112e2565b73ffffffffffffffffffffffffffffffffffffffff16145b5b90509392505050565b600073ffffffffffffffffffffffffffffffffffffffff168273ffffffffffffffffffffffffffffffffffffffff16036121ed5760006040517f64a0ae920000000000000000000000000000000000000000000000000000000081526004016121e49190612733565b60405180910390fd5b60006121fb83836000611339565b9050600073ffffffffffffffffffffffffffffffffffffffff168173ffffffffffffffffffffffffffffffffffffffff161461226f5760006040517f73c6ac6e0000000000000000000000000000000000000000000000000000000081526004016122669190612733565b60405180910390fd5b505050565b60606000600161228384612342565b01905060008167ffffffffffffffff8111156122a2576122a16129f1565b5b6040519080825280601f01601f1916602001820160405280156122d45781602001600182028036833780820191505090505b509050600082602001820190505b600115612337578080600190039150507f3031323334353637383961626364656600000000000000000000000000000000600a86061a8153600a858161232b5761232a613779565b5b049450600085036122e2575b819350505050919050565b600080600090507a184f03e93ff9f4daa797ed6e38ed64bf6a1f01000000000000000083106123a0577a184f03e93ff9f4daa797ed6e38ed64bf6a1f010000000000000000838161239657612395613779565b5b0492506040810190505b6d04ee2d6d415b85acef810000000083106123dd576d04ee2d6d415b85acef810000000083816123d3576123d2613779565b5b0492506020810190505b662386f26fc10000831061240c57662386f26fc10000838161240257612401613779565b5b0492506010810190505b6305f5e1008310612435576305f5e100838161242b5761242a613779565b5b0492506008810190505b612710831061245a5761271083816124505761244f613779565b5b0492506004810190505b6064831061247d576064838161247357612472613779565b5b0492506002810190505b600a831061248c576001810190505b80915050919050565b6040518060e0016040528060608152602001600060048111156124bb576124ba6128c7565b5b815260200160608152602001600060058111156124db576124da6128c7565b5b8152602001600015158152602001600073ffffffffffffffffffffffffffffffffffffffff168152602001606081525090565b6000604051905090565b600080fd5b600080fd5b60007fffffffff0000000000000000000000000000000000000000000000000000000082169050919050565b61255781612522565b811461256257600080fd5b50565b6000813590506125748161254e565b92915050565b6000602082840312156125905761258f612518565b5b600061259e84828501612565565b91505092915050565b60008115159050919050565b6125bc816125a7565b82525050565b60006020820190506125d760008301846125b3565b92915050565b600081519050919050565b600082825260208201905092915050565b60005b838110156126175780820151818401526020810190506125fc565b60008484015250505050565b6000601f19601f8301169050919050565b600061263f826125dd565b61264981856125e8565b93506126598185602086016125f9565b61266281612623565b840191505092915050565b600060208201905081810360008301526126878184612634565b905092915050565b6000819050919050565b6126a28161268f565b81146126ad57600080fd5b50565b6000813590506126bf81612699565b92915050565b6000602082840312156126db576126da612518565b5b60006126e9848285016126b0565b91505092915050565b600073ffffffffffffffffffffffffffffffffffffffff82169050919050565b600061271d826126f2565b9050919050565b61272d81612712565b82525050565b60006020820190506127486000830184612724565b92915050565b61275781612712565b811461276257600080fd5b50565b6000813590506127748161274e565b92915050565b6000806040838503121561279157612790612518565b5b600061279f85828601612765565b92505060206127b0858286016126b0565b9150509250929050565b6000806000606084860312156127d3576127d2612518565b5b60006127e186828701612765565b93505060206127f286828701612765565b9250506040612803868287016126b0565b9150509250925092565b6000819050919050565b6128208161280d565b811461282b57600080fd5b50565b60008135905061283d81612817565b92915050565b60006020828403121561285957612858612518565b5b60006128678482850161282e565b91505092915050565b60006020828403121561288657612885612518565b5b600061289484828501612765565b91505092915050565b6128a68161268f565b82525050565b60006020820190506128c1600083018461289d565b92915050565b7f4e487b7100000000000000000000000000000000000000000000000000000000600052602160045260246000fd5b60058110612907576129066128c7565b5b50565b6000819050612918826128f6565b919050565b60006129288261290a565b9050919050565b6129388161291d565b82525050565b6006811061294f5761294e6128c7565b5b50565b60008190506129608261293e565b919050565b600061297082612952565b9050919050565b61298081612965565b82525050565b600060a08201905081810360008301526129a08188612634565b90506129af602083018761292f565b81810360408301526129c18186612634565b90506129d06060830185612977565b6129dd60808301846125b3565b9695505050505050565b600080fd5b600080fd5b7f4e487b7100000000000000000000000000000000000000000000000000000000600052604160045260246000fd5b612a2982612623565b810181811067ffffffffffffffff82111715612a4857612a476129f1565b5b80604052505050565b6000612a5b61250e565b9050612a678282612a20565b919050565b600067ffffffffffffffff821115612a8757612a866129f1565b5b612a9082612623565b9050602081019050919050565b82818337600083830152505050565b6000612abf612aba84612a6c565b612a51565b905082815260208101848484011115612adb57612ada6129ec565b5b612ae6848285612a9d565b509392505050565b600082601f830112612b0357612b026129e7565b5b8135612b13848260208601612aac565b91505092915050565b60058110612b2957600080fd5b50565b600081359050612b3b81612b1c565b92915050565b60068110612b4e57600080fd5b50565b600081359050612b6081612b41565b92915050565b600080600080600060a08688031215612b8257612b81612518565b5b600086013567ffffffffffffffff811115612ba057612b9f61251d565b5b612bac88828901612aee565b9550506020612bbd88828901612b2c565b945050604086013567ffffffffffffffff811115612bde57612bdd61251d565b5b612bea88828901612aee565b9350506060612bfb88828901612b51565b925050608086013567ffffffffffffffff811115612c1c57612c1b61251d565b5b612c2888828901612aee565b9150509295509295909350565b612c3e8161280d565b82525050565b6000604082019050612c59600083018561289d565b612c666020830184612c35565b9392505050565b612c76816125a7565b8114612c8157600080fd5b50565b600081359050612c9381612c6d565b92915050565b60008060408385031215612cb057612caf612518565b5b6000612cbe85828601612765565b9250506020612ccf85828601612c84565b9150509250929050565b600067ffffffffffffffff821115612cf457612cf36129f1565b5b612cfd82612623565b9050602081019050919050565b6000612d1d612d1884612cd9565b612a51565b905082815260208101848484011115612d3957612d386129ec565b5b612d44848285612a9d565b509392505050565b600082601f830112612d6157612d606129e7565b5b8135612d71848260208601612d0a565b91505092915050565b60008060008060808587031215612d9457612d93612518565b5b6000612da287828801612765565b9450506020612db387828801612765565b9350506040612dc4878288016126b0565b925050606085013567ffffffffffffffff811115612de557612de461251d565b5b612df187828801612d4c565b91505092959194509250565b60008060408385031215612e1457612e13612518565b5b6000612e2285828601612765565b9250506020612e3385828601612765565b9150509250929050565b600082825260208201905092915050565b6000612e59826125dd565b612e638185612e3d565b9350612e738185602086016125f9565b612e7c81612623565b840191505092915050565b612e908161291d565b82525050565b612e9f81612965565b82525050565b612eae816125a7565b82525050565b612ebd81612712565b82525050565b600060e0830160008301518482036000860152612ee08282612e4e565b9150506020830151612ef56020860182612e87565b5060408301518482036040860152612f0d8282612e4e565b9150506060830151612f226060860182612e96565b506080830151612f356080860182612ea5565b5060a0830151612f4860a0860182612eb4565b5060c083015184820360c0860152612f608282612e4e565b9150508091505092915050565b60006020820190508181036000830152612f878184612ec3565b905092915050565b7f4e487b7100000000000000000000000000000000000000000000000000000000600052602260045260246000fd5b60006002820490506001821680612fd657607f821691505b602082108103612fe957612fe8612f8f565b5b50919050565b60006060820190506130046000830186612724565b613011602083018561289d565b61301e6040830184612724565b949350505050565b7f4861736820616c72656164792075736564000000000000000000000000000000600082015250565b600061305c6011836125e8565b915061306782613026565b602082019050919050565b6000602082019050818103600083015261308b8161304f565b9050919050565b6000819050919050565b6130ad6130a88261268f565b613092565b82525050565b60008160601b9050919050565b60006130cb826130b3565b9050919050565b60006130dd826130c0565b9050919050565b6130f56130f082612712565b6130d2565b82525050565b6000613107828661309c565b602082019150613117828561309c565b60208201915061312782846130e4565b601482019150819050949350505050565b7f4e487b7100000000000000000000000000000000000000000000000000000000600052601160045260246000fd5b60006131728261268f565b91507fffffffffffffffffffffffffffffffffffffffffffffffffffffffffffffffff82036131a4576131a3613138565b5b600182019050919050565b7f496e76616c6964206f7220657870697265642068617368000000000000000000600082015250565b60006131e56017836125e8565b91506131f0826131af565b602082019050919050565b60006020820190508181036000830152613214816131d8565b9050919050565b60006132268261268f565b91506132318361268f565b925082820190508082111561324957613248613138565b5b92915050565b60008190508160005260206000209050919050565b60006020601f8301049050919050565b600082821b905092915050565b6000600883026132b17fffffffffffffffffffffffffffffffffffffffffffffffffffffffffffffffff82613274565b6132bb8683613274565b95508019841693508086168417925050509392505050565b6000819050919050565b60006132f86132f36132ee8461268f565b6132d3565b61268f565b9050919050565b6000819050919050565b613312836132dd565b61332661331e826132ff565b848454613281565b825550505050565b600090565b61333b61332e565b613346818484613309565b505050565b5b8181101561336a5761335f600082613333565b60018101905061334c565b5050565b601f8211156133af576133808161324f565b61338984613264565b81016020851015613398578190505b6133ac6133a485613264565b83018261334b565b50505b505050565b600082821c905092915050565b60006133d2600019846008026133b4565b1980831691505092915050565b60006133eb83836133c1565b9150826002028217905092915050565b613404826125dd565b67ffffffffffffffff81111561341d5761341c6129f1565b5b6134278254612fbe565b61343282828561336e565b600060209050601f8311600181146134655760008415613453578287015190505b61345d85826133df565b8655506134c5565b601f1984166134738661324f565b60005b8281101561349b57848901518255600182019150602085019450602081019050613476565b868310156134b857848901516134b4601f8916826133c1565b8355505b6001600288020188555050505b505050505050565b60006020820190506134e26000830184612c35565b92915050565b7f506f6b656d6f6e20646f65736e27742065786973740000000000000000000000600082015250565b600061351e6015836125e8565b9150613529826134e8565b602082019050919050565b6000602082019050818103600083015261354d81613511565b9050919050565b600081519050919050565b600082825260208201905092915050565b600061357b82613554565b613585818561355f565b93506135958185602086016125f9565b61359e81612623565b840191505092915050565b60006080820190506135be6000830187612724565b6135cb6020830186612724565b6135d8604083018561289d565b81810360608301526135ea8184613570565b905095945050505050565b6000815190506136048161254e565b92915050565b6000602082840312156136205761361f612518565b5b600061362e848285016135f5565b91505092915050565b600081905092915050565b600061364d826125dd565b6136578185613637565b93506136678185602086016125f9565b80840191505092915050565b600061367f8285613642565b915061368b8284613642565b91508190509392505050565b60006136aa6136a584612a6c565b612a51565b9050828152602081018484840111156136c6576136c56129ec565b5b6136d18482856125f9565b509392505050565b600082601f8301126136ee576136ed6129e7565b5b81516136fe848260208601613697565b91505092915050565b60006020828403121561371d5761371c612518565b5b600082015167ffffffffffffffff81111561373b5761373a61251d565b5b613747848285016136d9565b91505092915050565b60006040820190506137656000830185612724565b613772602083018461289d565b9392505050565b7f4e487b7100000000000000000000000000000000000000000000000000000000600052601260045260246000fdfea26469706673582212202554c6f0f9b997146129904d592b4362589bd14ab67662bd96997cd9e30d922264736f6c634300081c0033",
    "linkReferences": {},
    "deployedLinkReferences": {}
}